:020000040000FA
:1000000000B20020ED4A0100E5600200D94A01007B
:10001000D94A0100D94A0100D94A01000000000074
:10002000000000000000000000000000E94C01009A
:10003000D94A0100000000007D4C0100D94A0100AE
:10004000DD4F0100C9870200DD4F0100DD4F0100D7
:10005000DD4F0100DD4F0100DD4F0100DD4F0100EC
:100060007F870200DD4F0100DD4F0100B3870200F2
:10007000DD4F0100DD4F0100DD4F0100DD4F0100CC
:10008000DD4F0100DD4F0100DD4F0100DD4F0100BC
:10009000DD4F0100DD4F0100DD4F0100DD4F0100AC
:1000A000DD4F0100DD4F0100DD4F0100DD4F01009C
:1000B000DD4F0100DD4F0100DD4F0100DD4F01008C
:1000C000DD4F0100DD4F0100DD4F0100DD4F01007C
:0C00D000D5210100DD4F0100DD4F0100D3
:1000E00001F0FF01102A2BDB10F0070F08D010F8E9
:1000F000013B013A8B422DD010F0070F42B3F6D1ED
:10010000F0B441EA012141EA014122F007047FF005
:1001100000070023F0E80256083C85EA010586EA5C
:10012000010685FA47F5A3FA87F586FA47F6A5FA98
:1001300087F68EB9EED1F0BC01F0FF0102F00702A4
:1001400032B110F8013B013A83EA010313B1F8D14F
:100150000020704701387047002D06BF3546033830
:10016000073815F0010F07D1013015F4807F02BF69
:10017000013015F4C03F0130F0BC0138704700BFBA
:100180002DE9F00791E8F807B2E802105B1854EB8C
:100190000C04B2E802104D4156EB0C06B2E8021016
:1001A0004F4158EB0C08B2E8021059EB01095AEB29
:1001B0000C0A80E8F80780410130BDE8F00770477D
:1001C0002DE9F00791E8F807B2E802105B1A74EB2A
:1001D0000C04B2E802108D4176EB0C06B2E8021076
:1001E0008F4178EB0C08B2E8021079EB01097AEB49
:1001F0000C0A80E8F80780414042BDE8F0077047EC
:100200002DE9F007524290E87800B1E880071740E6
:10021000DB1918EA020854EB080419EA020955EB45
:1002200009051AEA020A56EB0A0678C090E8780037
:10023000B1E8800717407B4118EA020854EB080434
:1002400019EA020955EB09051AEA020A56EB0A06F1
:1002500078C080410130BDE8F00770472DE9F00714
:10026000524290E87800B1E880071740DB1B18EA9B
:10027000020874EB080419EA020975EB09051AEA89
:10028000020A76EB0A0678C090E87800B1E88007A9
:100290001740BB4118EA020874EB080419EA020986
:1002A00075EB09051AEA020A76EB0A0678C0804166
:1002B0004042BDE8F00770472DE9F00152424FF08F
:1002C000040890E8300091E8C000A31B1340E41A32
:1002D000F618EB1B1340ED1AFF1830C0C0C1B8F17F
:1002E0000108EED1BDE8F001704700BF00B592EC07
:1002F000080AB1E8805707EE101A53EC102A56ECA2
:10030000114AA7FB0251A8FB020BE7FB6310E9FBB4
:1003100062B041EC145AA8FB0351EAFB6201E7FB0F
:1003200064B5E7FB6605E8FB661505EE10BAA9FBA8
:1003300003B6EAFB6316ECFB6356E8FB640BE9FBD0
:10034000641BEAFB645BECFB646B05EE900AACFBA0
:10035000023012EE104AEEFB6250E9FB6460EAFBE9
:1003600064B0E7FB6431E8FB645112EE904AE8FBAD
:100370006461E9FB64B1EAFB640106EE103AA7FB95
:10038000043213EE104AE7FB6462E8FB64B2E9FB57
:100390006402EAFB641211EE904AE9FB6453EAFB43
:1003A000646313EE904AE7FB64B3E8FB6403E9FB84
:1003B0006413EAFB642306EE905A17EE109A99E84C
:1003C000000610EE108AA9FB0854EAFB68B412EE8E
:1003D000108AECFB6804EEFB6814E9FB6824EAFB76
:1003E000683410EE908AEEFB6865E9FB68B5EAFBBD
:1003F000680512EE908AECFB6815EEFB6825E9FBB8
:100400006835EAFB684507EE106A11EE108AAEFB0C
:100410000876E9FB6806EAFB681613EE108AECFB27
:100420006826EEFB6836E9FB6846EAFB685611EE83
:10043000908AECFB68B7EEFB6807E9FB6817EAFBFC
:10044000682713EE908AECFB6837EEFB6847E9FB00
:100450006857EAFB686700BD2DE9F04F07EE900A88
:10046000FFF744FF17EE908A07EE90BAA8EC084A0F
:1004700088E8FF00BDE8F08F00B591E89857A3FB2E
:100480000352A3FB0401E3FB6420E3FB671042EC8F
:10049000145AA3FB0752E3FB6802E4FB6415E3FB79
:1004A0006805E3FB6925A4FB07B6E3FB6926E3FBCC
:1004B0006A56E4FB670BE4FB682BE3FB6A5BE3FB38
:1004C0006C6B40EC151AA4FB0810E4FB6950E3FBCD
:1004D0006C60E3FB6EB0E7FB6721E4FB6951E4FB72
:1004E0006A61E3FB6EB1E4FB6E0106EE102AA7FB26
:1004F0000832E4FB6A62E4FB6CB2E4FB6E02E7FBE9
:100500006E12E7FB6853E7FB6963E4FB6CB3E7FB40
:100510006C03E7FB6E13E8FB6E2306EE905AA7FB15
:100520000954E7FB6AB4E7FB6C04E8FB6C14E8FBD6
:100530006E24E9FB6E34E8FB6865E7FB6AB5E8FB0F
:100540006A05E8FB6C15E9FB6C25E9FB6E35EAFBF7
:100550006E4507EE106AA8FB0976E8FB6A06E9FB20
:100560006A16E9FB6C26EAFB6C36EAFB6E46ECFB8E
:100570006E56E8FB69B7E9FB6907E9FB6A17EAFB16
:100580006A27EAFB6C37ECFB6C47ECFB6E57EEFB23
:100590006E6700BD2DE9F04F07EE900AFFF76CFF84
:1005A00017EE908A07EE90BAA8EC084A88E8FF0098
:1005B000BDE8F08F30B44FF0000310F8014B11F894
:1005C000015B013A84EA050443EA0403F5D1A3F18F
:1005D00001034FEAD37030BC704700BF4FF00003F7
:1005E00010F8012B013943EA0203F9D1A3F1010309
:1005F0004FEAD370704700BF30B411F8014B12F8C6
:10060000015B6C4000F8014B013BF6D130BC7047F8
:100610002DE9F00791E8F807B2E802105B1854EBF7
:100620000C04B2E802104D4156EB0C06B2E8021081
:100630004F4158EB0C08B2E8021059EB01095AEB94
:100640000C0A8941B3F1FF3374F1FF3475F1FF35C2
:1006500076F1000677F1000778F1000879F10109D9
:100660007AF1FF3A51F100015B184C414D4156F1CE
:10067000000657F1000758F1000859EBD1795AEB01
:10068000010A80E8F807BDE8F00770472DE9F00798
:1006900091E8F807B2E802105B1A74EB0C04B2E8B8
:1006A00002108D4176EB0C06B2E802108F4178EB18
:1006B0000C08B2E8021079EB01097AEB0C0A8941C7
:1006C0005B184C414D4156F1000657F1000758F1B7
:1006D000000859EBD1795AEB010A80E8F807BDE828
:1006E000F007704718EB040859EB05095AEB060AA6
:1006F0005BEB070B5FF0000C4CF1000C18EB0508EE
:1007000059EB06095AEB070A5BEB070B50EB0C00A1
:100710005FF0000C51EB0C0152EB0C0263414CF109
:10072000000CB8EB070879F100097AF1000A7BEBBD
:10073000040BA841B141A241B3416CF1000CBBEBE9
:10074000050BB041B941AA41BB416CF1000C4CF022
:1007500001068CF0020718EB060859EB6C095AEBFE
:100760006C0A7BEB6C0B70EB6C0471EB6C0572EB41
:10077000670653EB6C076CEB6C0C18EB0C0059EB39
:100780000C015AEB0C025BF1000354F1000455F12B
:10079000000556EBDC7657EB0C0770472DE9F04F60
:1007A00007EE900AFFF7A2FD59EC168A17EE10AA81
:1007B000FFF798FF59EC148A5BEC15AAFFF792FF3C
:1007C00017EE908A88E8FF00BDE8F08F2DE9F04F22
:1007D00007EE900AFFF750FE59EC168A17EE10AAA2
:1007E000FFF780FF59EC148A5BEC15AAFFF77AFF3C
:1007F00017EE908A88E8FF00BDE8F08F064B074AA5
:100800005B7802604FF420728280C371082200235B
:1008100082710372704700BFB01500205BF20000C8
:10082000064B074A9B7802604FF494728280C37132
:100830000822FF2382710372704700BFB0150020A9
:10084000C9ED0000F8B5C41D002824F007040546D2
:1008500014BF2046002000F035FB061E02DA6FF0C0
:100860000B00F8BD0DB9F442F9D4284FB979787965
:100870003B7AFA79033103300BF01FFF0028EEDBDF
:1008800039787B7826440336002D194426F0030678
:1008900000FB01F114BF3046002000F09FFC304403
:1008A0000DB90028DBDBBA780346B2B1F97BFB78DF
:1008B00011441944FF29D2DC0330002D20F0030439
:1008C00014BF204600207A89C9B200F0F7FC031E4D
:1008D000C5DB23440DB9002BC1DB397B81B1BA786C
:1008E00072B10733002D23F0070414BF2046002007
:1008F00003F056FF031EB2DB23440DB9002BAEDB21
:10090000002D0CBF18460020ABE700BFB01500203B
:100910001FB572B6184B9D6AE5B9BFF34F8F1749E3
:10092000174BCA6802F4E0621343CB60BFF34F8FEA
:1009300000BFFDE7B2FBF6F2DCB20133002AF9D1C9
:1009400004F110036B4403F80C2C0A2234B901A8FB
:10095000A847E2E7024600230A26EDE7631E04AE3D
:10096000DCB256FA83F3B0FBF2F602FB160030302D
:1009700003F80C0C3046E9E7B015002000ED00E06C
:100980000400FA0507B50C4B1A7A8DF80120DA79C4
:100990008DF8002068469A795B79ADF80420ADF8AF
:1009A000023002F073FB18B1D9210320FFF7B0FF2A
:1009B00003B05DF804FB00BFB015002038B5054654
:1009C00070B309F09FFF10B94FF0FF3038BD0EF043
:1009D00038FDB0F5FA7FF7D8144C1548A56200250C
:1009E00000F0E8F926222946204684F82C500AF027
:1009F00091FB01236370A3701B23637140F21B33CF
:100A0000E380022323721F23638108232373EFF300
:100A1000108472B600F028FD2CB962B62046D5E7E6
:100A20006FF01500D2E72846D0E700BFB0150020D0
:100A30008509000010B500283CD1214C94F82C30D9
:100A4000032B34D059B1002A37D00239052931D8C7
:100A5000DFE801F0031422302528137863700020AA
:100A6000FFF7F0FE0028B7BF0123022384F82C30E3
:100A70006FF00B00A8BF84F82C3010BD9378E3B161
:100A8000D378D3B113781A2B17D953781A2B14D9DA
:100A90001368C4F80530E2E71378A370DFE7138822
:100AA0006381DCE71388FF2B07D82373D7E74FF068
:100AB000FF30E2E76FF02C00DFE76FF01500DCE7B6
:100AC000B0150020F8B50D46064630B329B311F035
:100AD000070422D1124F97F82C30012B02D16FF06E
:100AE0000B00F8BD032B02D14FF0FF30F9E700F007
:100AF0009DF80028F8D02846FFF7A4FE0028EEDB7A
:100B00000EF0E2FB3046214602F054FBFFF73AFFBD
:100B1000032387F82C302046E3E76FF01500E0E769
:100B2000B015002010B5074C94F82C30032B03D1DE
:100B300002F058FB03F01EF90BF0B3FE002084F81E
:100B40002C0010BDB015002050B1074B03F114026A
:100B500053F8041B40F8041B9342F9D1002070475E
:100B60006FF01500704700BFD5E0020010B5074BCD
:100B700093F82C403CB902F0E7FA0120044900F058
:100B800099F9204610BD4FF0FF30FBE7B01500206B
:100B90002108000010B5074B93F82C403CB902F037
:100BA000E7FA2046044900F085F9204610BD4FF0D1
:100BB000FF30FBE7B0150020FD07000010B5054B26
:100BC00093F82C401CB902F08BFA204610BD4FF070
:100BD000FF30FBE7B015002010B5054B93F82C4013
:100BE0001CB90CF0E9FE204610BD4FF0FF30FBE7CA
:100BF000B015002010B5054B93F82C401CB90CF033
:100C0000DEFE204610BD4FF0FF30FBE7B0150020A0
:100C1000024B02681A600020704700BFE0150020F8
:100C2000014B1B68184700BFE0150020024B1868F5
:100C3000003818BF01207047E01500202DE9F74368
:100C4000294E0446071D2848376003F0ABF80228F8
:100C5000054607D1244920460BF035F8284603B055
:100C6000BDE8F083042838D13378072B18D13E2013
:100C700000F050F878B9F378327901A943EA0223F9
:100C80006846ADF800300BF0FEFA0028DBD05321A7
:100C90000820FFF73DFE052000F07CF80028EAD090
:100CA000314620460BF076F8B0F5817F01D37221F2
:100CB000EEE70028C7D094F8008094F802904046F0
:100CC00000F028F80028BED0B8F13E0FC6D1484643
:100CD00000F060F80028C1D1B5E70828BED102496C
:100CE00020460BF01FF8B9E7E4150020074B4FF042
:100CF000FF3141F6FF72C3E9001205490022C1E944
:100D000000221F21C3E90212704700BFC004002067
:100D1000281600203F280CD801380B4BC0F3421294
:100D200000F01F0053F8223023FA00F000F0010019
:100D30007047FF2806D04038C0F34212034B00F042
:100D40001F00EFE701207047C00400202816002094
:100D50000146074B006849681A4603C240F48C22DA
:100D60001A6041F0107242F4FF625A60704700BF8F
:100D7000C00400200246024B0068516803C370475C
:100D8000281600200246024B0068516803C37047D2
:100D9000C80400200138064BC0F3421203EB820363
:100DA00000F01F009B6823FA00F000F0010070477C
:100DB000C0040020014B1860704700BF30160020AF
:100DC00007B5FFF793FF0CF048FA044B1B6813B10B
:100DD00001909847019803B05DF804FB301600209D
:100DE0000B880288F0B5C3F30E049EB204F114031D
:100DF000C57CC35A02352A442B4497B213FA82F3B6
:100E0000013B4288B3FBF7F313FB07439BB29A42C3
:100E1000044A93BF22EA0603324013439BB20B807D
:100E2000F0BD00BF0080FFFF08B54B1E062B04D8A5
:100E30004FF4D1711520FFF76BFD0A4B994202D98F
:100E400040F2A311F6E719B900B10160084608BDE8
:100E500028B103680022C3E901211A1D1A60043178
:100E6000F4E700BFFAFFFF7F10B5114B00EB410420
:100E70001A786389B3FBF2F303FB0223013A1A44A5
:100E8000B2F5706F027928BF00231A448378B2FB51
:100E9000F3F0194403FB1020091AB1FBF3F003FB34
:100EA000101313446FEA43436FEA5343638110BD49
:100EB00034160020024B03EB80004160704700BFF6
:100EC000341600202DE9F04F10F0070A85B00546D2
:100ED00004D040F261111720FFF71AFD554F07F1BA
:100EE0000C06B1460446B0464FF0010B57F8043BE0
:100EF0008DF80BA03BB101A898479DF80A30082B4C
:100F000001D9E821E7E79DF80B1081BB05B13160FD
:100F1000B94506F10406E9D12DB3DFF81CE1002341
:100F20008EF800301E46022258F82200013A60B1C5
:100F300090F804A08178BAF1FF0F66D14FF0000756
:100F40008E4207713CBFCEB20123511CECD10BB1D4
:100F50008EF80060022640F6FF6A58F82670002FCF
:100F600065D1013EF9D2601B05B0BDE8F08F9DF858
:100F70000AC0BCF1020FE64601F1050238BF4FF08E
:100F8000020E0EF1FF3004EB42040444CEF10000E7
:100F90002040BDF808406444013CCCF1000C04EA58
:100FA0000C04B4F5803F4FEA420301D3F82192E7E5
:100FB00075B1C31A336099701C8083F803B09DF833
:100FC0000C201A71019A1A814FEA124CA3F806C03C
:100FD00004FB01049CE758F82C90B9F1000F06D0EF
:100FE00099F804B0D34504BF99F802904F440CF12E
:100FF000FF3CBCF1000FEEDA3944FF29A0D90BB158
:101000008EF8006040F2271165E794460027F0E76C
:1010100007EB41033846A3F80AA0FFF725FF09F1C3
:101020000109BB785FFA89F18B42F1D899E74FF05B
:101030000009F6E73816002034160020F8B54FF600
:10104000FF730380184B03EB810105460869B8B1B3
:1010500086780379B3FBF6F206FB1233DBB219464E
:101060000A1D00EB4202B2F902705488002F09DB1E
:101070000131B1FBF6F206FB1211C9B28B42EFD17E
:101080000020F8BDFF29FBD0C4F30E03C4782B80E9
:1010900024B94FF4D5711720FFF73AFC5380BDE80F
:1010A000F8400BF0E9BA00BF341600201D4B03EBEB
:1010B000810170B50C69054644B3030404D54FF4AF
:1010C000DC711720FFF724FC014620460BF0B6FA2E
:1010D000FF28014604D02046BDE870400BF0CCBA92
:1010E000A078B5FBF0F300FB1353DBB219460A1DE1
:1010F00004EB4206B6F90260002E09DB0131B1FBB8
:10110000F0F200FB1211C9B28B42F0D1002070BD89
:10111000FF29FBD08B4204EB42021CBF0023E3708B
:101120005580D8E734160020094B03EB810110B538
:101130000C69014620460BF081FAFF28014604D0D5
:101140002046BDE810400BF097BA002010BD00BF4C
:1011500034160020F8B5104B03EB810107460C69EB
:10116000014620460BF06AFAFF28054611D0E688B2
:10117000238953EA064606D0014620460BF07CFA46
:1011800001463846B04720462946FFF76DFE00204D
:10119000F8BD0520FCE700BF3416002038B50E4B23
:1011A000827903EB82030446186908B9052038BD2B
:1011B0008278E1799142F9D24B1CE37100EB410353
:1011C0005D89B3F90A30002BF3DBA5800BF054FAEC
:1011D00020600020EBE700BF3416002070B5044605
:1011E00010F003000E4603D04F211820FFF790FBAC
:1011F000FFF71AFE054624B1034831460460FFF7A5
:1012000013FE284670BD00BF501600202DE9F3479D
:101210001C4C9DF82CA0904622681E4607469DF85F
:1012200028300D461AB961211820FFF771FB1A46C4
:101230000921404601930BF087F852461FFA80F9C6
:10124000092130460BF080F819FA80F120680BF084
:10125000CAF9019B386018B9286002B0BDE8F08770
:1012600000EB09042C603868414609220BF025F890
:10127000286853460922314602B0BDE8F0470BF01A
:101280001CB800BF5016002070B50E4604460BF087
:101290006EF8054630460BF06AF8044B2A182146D2
:1012A0001868BDE870400BF0C2B900BF50160020AE
:1012B000014B18680BF08BB9501600201F2AF8B5A7
:1012C00004460ED89200033222F00303B3F5803FA8
:1012D0002ED2194DB4B1A00711D05F210920FFF71C
:1012E00017FBFF2A4FEA420304D9FF329A42A8BFF4
:1012F0001A46E8E77C2BB8BF7C231A46E3E729703F
:101300006C602B8122F0030201EB81031204D800F0
:1013100001276B68120C0025EEB28E4200D3F8BD97
:1013200014B126181F705E60104401352833F3E7AE
:101330004FF0FF30F3E700BF5416002038B5144AD1
:10134000147853680021C8B2844203D8AB21092025
:10135000FFF7DEFA1846013105782833002DF2D068
:101360000021817001241289447044688161C16147
:10137000920800F12001051D21F8022B994245F841
:10138000044B1444F8D100234361037038BD00BFFF
:10139000541600202DE9F8434B7880460C4602F0A5
:1013A000040602F0FB07D3B1DFB12E4BD4F8049052
:1013B0001D89B7BB01236370AD08A761E76104F124
:1013C00020034A46211D04F1280023F8025B9842BD
:1013D00041F8042B2A44F8D10023636101E0002F77
:1013E000E3D0FF23A370002E18BF0226A3191B7D94
:1013F000032B03D1022F1CBF0136F6B2A319012221
:101400001A7506F10C0204EB8606002324F812304C
:101410007268A370C8F80020A8F804304046BDE800
:10142000F883002114226170A01809F073FEB5F54D
:10143000FF7F0FD26B08ED1AADB209EB0502C4F8BD
:1014400004902584A2606384C4F80C90A584226172
:10145000E384C6E7B5F5EE6F4FF0FF03EBD940F23A
:101460007265EAE754160020134B012200214FF069
:10147000FF309A60C3F80012C3F80803C3F80015E0
:10148000C3F804259A60C3F80803C3F80015C3F82D
:1014900004250A490A4A03F580334FF40040C3F893
:1014A0000825C1F88000BFF34F8FBFF36F8FC1F8DD
:1014B0008001C3F80825704700F0004000E100E01B
:1014C0000000F63F0A46192302F8033B0448C368AC
:1014D000C1F803300369536043699360704700BFEC
:1014E00060160020024B5A8C02435A845B6A1847EC
:1014F00060160020014B00215B6A1847601600202F
:1015000010B5154C05F0B0FD05F042F9208DFFF740
:10151000F1FF237E63B12246104952F80C3BE36091
:101520006368536004F11900A36893600CF0E2FF54
:101530000B4B228D93E8030003F0BAF9236B188854
:1015400003F0E2F8A36B94F8341094F83500984750
:10155000002384F83C3010BD60160020C514000044
:101560008C160020034B93F83C300BB1FFF7C8BF3B
:10157000704700BF6016002070B51D4C256B636C72
:10158000236495F89430064694F848000BB1031D87
:10159000D8B295F869102EB9FF2803D195F86830B4
:1015A0008B4201D005F0EEFB95F89430D3B1E06C9E
:1015B00005F0FAFD012384F86830D5E93E23E16C9B
:1015C000206CC4E9182305F099F816B9304605F0E7
:1015D0002BFE95F86810002005F070FE022384F8B9
:1015E0003C3070BD206C05F0DFFD05F0D1F8ECE774
:1015F0006016002008B5094B93F83C20022A04D05D
:1016000040F253212720FFF783F9DA7A42F00102F2
:10161000DA72BDE80840FFF773BF00BF6016002014
:1016200010B50E4CA26F137803F00303032B04D103
:10163000D378022B01D1002010BDE06F0AF02AFF01
:101640000028F9D1A36F1B7803F00303032BF2D01A
:1016500001F0BCFE80F00100C0B2EDE76016002092
:101660002DE9FF41434C94F83C30256B012B064695
:101670000F465FFA83F804D040F2A4412720FFF719
:1016800047F995F884303BB1002185F88410042097
:10169000FFF728FF85F88680A16F0B7803F003031E
:1016A000032B05D195F88A3013B90220FFF71AFFF2
:1016B000A26F137803F00303032B02D053781BBBF4
:1016C000012385F88A3095F89430BBB1D5E93E0105
:1016D000236B94F848200392C4E918014FF00108E5
:1016E00093F8690084F868800BF0DDF80021034668
:1016F0000091039A2049404604F0BAFF36B104B085
:10170000BDE8F041FFF7FCBE0223DAE7002FF6D078
:10171000D4F88030304698470028F0D094F8343020
:10172000002BECD194F88430DD06C3F3001001D512
:10173000FFF776FF636CD4F888201B78C3F300139F
:101740002AB9B4F88C2013B1B2FA82F35B09628C27
:10175000910709D5A36FDB78022BD0D1002004B00C
:10176000BDE8F041FFF708BF002AC8D10343F5D117
:10177000C5E700BF60160020B016002010B5064B6C
:1017800093F83C2002F0FF0422B91C7603F088F89D
:10179000204610BD0C24FBE7601600200A4B0B4AC4
:1017A00070B506460D461A60FFF7E8FF18B1E12153
:1017B0002720FFF7ADF8064C012104F18E000CF054
:1017C00075FD6664E56470BD08050020901F00008B
:1017D00060160020024B012283F8B020704700BF42
:1017E00060160020F0B5814D85B002AE86E803009A
:1017F00095F83C100A9F01F0FF0411B90AB103B13A
:1018000027B940F26F112720FFF782F896E803000E
:1018100005F12C0C8CE8030085F8B04085F83440C5
:1018200085F8B14085F8354085F8B24085F8B34079
:101830006C842C852C6BC5F880306A62AF6305F030
:10184000DFFA04F0A5FF94F96C0005F075FB606AFF
:1018500005F09CFCE06905F075FB94F8A40005F028
:1018600097FB2B6B93F8AF310BB105F0B7FA94F8F7
:1018700069209D21012005F0E3FB5D4B186805F010
:101880008BFC2369EB676369C5F8B43094F8773053
:1018900073B9226F62B1B4F8BE10B4F888308B42CD
:1018A00006D1B4F874100B44A4F8BE3001231360C1
:1018B000504E04F5807304F58877186859683246ED
:1018C00003C20833BB421646F7D1D4F810314A4A56
:1018D000C5F86930D4F8143153602B6B93F88E201F
:1018E00093F86860A2F12501012903D993F88F10BC
:1018F00025295DD193F856322BB1012E03D0012B4F
:1019000014BF0226012604F13007314638460CF098
:1019100083FE31460CF027FBA38F94F869109842A0
:1019200028BF184685F8B80038460CF05EFE94F8DB
:10193000691094F89470B4F84460042908BF032136
:101940000CF011FB0FB9043080B2B04228BF304612
:1019500094F89430C6B285F8B96085F8486093B1C0
:10196000D4E93E2394F869000127C5E9182385F8D6
:1019700068700AF098FF0022034600921D49324623
:10198000384604F075FE0120FFF7F6FD00232B60BA
:101990006B60AB60B4F888306B8023882B8094F840
:1019A000A4302B71A36F0BB101221A6005B0F0BDFA
:1019B000203A012A0CD823290CD093F8363113F0A1
:1019C000010211D19B079ED5012E18BF02269AE76E
:1019D000232905D193F8362193F861301340EEE7BF
:1019E000032E08BF04268EE716468CE760160020FB
:1019F00008050020B0160020C916002008B50C4BC1
:101A000093F83C201AB9BDE80840FFF779BD93F878
:101A10003C20022A04D040F235212720FEF778FF2F
:101A20001B6BD3F8C801BDE8084005F0CFBB00BF71
:101A300060160020014B1876704700BF601600202A
:101A4000014B93F8B200704760160020024B188DCE
:101A5000C0F3C020704700BF60160020014B93F810
:101A6000B1007047601600202DE9F3411E4D82073A
:101A70002C6B06460F4622D5D5F8883023B940F2A4
:101A800095412720FEF744FFB5F88C20296C1846B5
:101A9000033291F8018009F0C7FA0DF1020201A9A1
:101AA0002864D5F8B4000AF088FD01980AF06FFDAB
:101AB000012238604146D5F8B4000AF035FDF3073D
:101AC0000ED5D4E93E32013342F10002C4E93E3280
:101AD00094F88C30012B0CBF0023012384F88C3048
:101AE00002B0BDE8F08100BF601600202DE9F04F84
:101AF000AA4C002387B0CDE9043394F83C30276B1F
:101B0000022B81468A4604D04FF4A3612720FEF7BA
:101B1000FFFE238D590606D44020FFF7EBFC238DF2
:101B200043F04003238597F89430B9F1000F00F09B
:101B30002681A3B104F044FE88B9236C5A7872B1AF
:101B40001B7897F88C20C3F3C0039A4207D1012376
:101B500084F83530FFF7D4FC07B0BDE8F08F236C74
:101B60005978A4F88C1009B3D4F8B4000AF0B3FC87
:101B7000C4F88800238D97F88B2043F400732385E5
:101B8000236C1B78C3F380039A4200F0B980256B65
:101B900095F88A30002B3DD0022B11D1E06F04A9BB
:101BA0000AF030FC28B940F20E41AFE7C4F88810C3
:101BB000E0E7D5E93C32013342F10002C5E93C32AD
:101BC00095F88630002185F88A1023B185F88610B3
:101BD0001020FFF787FC95F885309BB1002685F82B
:101BE000856001F0DDFB10B940F225418EE73146FA
:101BF0000820FFF777FCD5E93C32013342F10002BF
:101C0000C5E93C3295F88B30012B0CBF0023012332
:101C100085F88B30238D43F4006323854FF0000B50
:101C2000216C97F88C200D78C5F3C0039A4240F0E0
:101C3000988005F00305032D266B63D0002D6CD131
:101C400096F88C30013B18BF012386F88C30236C4A
:101C50005B7833B1D6E93E32013342F10002C6E986
:101C60003E3297F893308BB1D7E93C23002697F8A2
:101C7000680084F86860C4E918230AF014FE484933
:101C800000960346FB22304604F0F2FCBAF1000F46
:101C900040F08880628C94F8B130120703D5A26FAF
:101CA000D278022A7ED0012B7CD8D4F88030012053
:101CB0009847002876D094F83480B8F1000F71D19D
:101CC000266B94F8483096F894208DF80D80002A01
:101CD00040F0B380FF2B96F8681003D196F8693076
:101CE0008B4202D0FF2005F04DF896F88A30032B86
:101CF00000F23881DFE813F0A400D5001D012E01A9
:101D0000CB468DE7238D012043F4805386F8840071
:101D100023850025FFF7E6FB92E74D78002D8FD055
:101D2000238D96F8945043F48053238504F0D4FF18
:101D3000042894F8B93006D1002D14BF1B221F22AD
:101D4000934228BF1346226C52789A420BD8D4F89B
:101D50008850002D85D094F8B03073B12020FFF763
:101D6000C9FB00257DE794F83430012043F01003CF
:101D700084F8343006F0BAF9F3E74D4660E70BB16A
:101D800004F05AFD94F8B130013384F8B130238D5A
:101D9000002543F480632385AB4662E7601600208C
:101DA000B016002005F0AAFA4FF0010A1DB105A9EE
:101DB0000220FFF759FEBBF1000F0DD0B4F8072049
:101DC000B4F805301343B7F8882013431EBFB4F8A6
:101DD00009300133A4F80930B9F1000F00F0CA80CE
:101DE000B4F805300133A4F80530002384F8B1308D
:101DF000634802F077FC049830B10AF0C8FB216B0D
:101E00000022027202F01EF8059B33B1216B002202
:101E10001A720C22059801F0E3FFBAF1000F7FF46B
:101E200099AE238D1B063FF597AE8020FFF762FB2E
:101E3000238D43F0800323858EE60433DBB249E72C
:101E400094F8B830ADF80E304E48A6F8583001F08E
:101E500097FA50B1A16F4FF48070FFF743FB012355
:101E600086F8853084F8B3301DE0E06F0DF10D0287
:101E70000DF10E010AF0A3FAA06790B196F8D130E7
:101E80007BB99DF80D302BB903808370A06F0121C1
:101E90000CF00CFABDF80E10A06F0CF0D4FA012370
:101EA000E0E7394BA36796F88B30A26FDB0003F0B5
:101EB0000801137803F0F3030B4396F88C108900A4
:101EC00001F004010B4323F010031370FFF7A8FB8C
:101ED0000028A06F037818BF4FF0100848EA0308E5
:101EE00080F8008096F89330002B3ED04378002B8A
:101EF0003BD0E06C05F058F9002384F86830D6E94F
:101F00003C23A16FE06CC4E9182304F0F7FB96F8BA
:101F10006910012005F0D2F9A26F1188A4F884108D
:101F200091781A4A012384F8B230917084F83C30D9
:101F30003CE7B6F85830E06FADF80E300DF10D0209
:101F40000DF10E010AF03BFAA0670028A7D140F27C
:101F5000F321DBE50B4801F013FA00289FD140F292
:101F6000FD21D3E540F20B31D0E505F01DF904F079
:101F70000FFCCCE7B4F807300133A4F8073037E79B
:101F80008C160020D8160020EE160020E416002043
:101F9000F5150000ED1A000061160000651500003F
:101FA0000B2808B504D940F2C1310620FEF7B0FC79
:101FB000014B33F8100008BD60A602002DE9F04F78
:101FC0002DED028B8BB0044615460293894690F89E
:101FD00069B00BF03BFD064694F8B001FFF7E0FF57
:101FE00094F88F300393304485F0010386B2059353
:101FF00055BB94F8F431032B26D1039B0D2B23D131
:10200000B4F854324B451FD1D4F8FC31C4F8E83150
:10201000A369B4F8CC21C4F8EC31B4F842321344CB
:10202000C4F8F031204604F043FAD4F85832A362E1
:10203000B4F85632A385D4F85C32A361D4F8603288
:102040002362022384F8F431B4F84072B4F8888033
:10205000A9EB07073FB204F50473002F08EE103A0E
:10206000B7BFD4E98A23029BC4E98E2301230493DA
:10207000CD4BA9EB08081B780FFA88F8B8BF474684
:1020800003F0FF05002B53D00DF0D7F900286FD0D7
:10209000B4F8E031012B6BD994F8F431022B67D0FE
:1020A00094F80A52002D63D194F8B001FFF778FF3D
:1020B00094F8F43100F5C860012B86B2D9B24AD148
:1020C00094F89230D4F828A0032B3ED1D4F8EC51E8
:1020D00055443146D4F8EC010DF0A9F9D4F8E831B3
:1020E000C4F8E801A0EB030AD4F8F03131462846E1
:1020F00003FB0AFA0DF09BF9D4F8F851C4F8F80183
:10210000451B3146A0690DF092F9AA44B4F8CC51B0
:10211000D4F8F0314544ED1BDB432B44D4F8FC519B
:10212000451B05FB03A50123C4F8FC0184F80A3212
:1021300094F8F431DFF870A2032B00F28C81DFE811
:1021400013F0190014016900350128460BF033FF24
:1021500000EB0A05BDE7A06931460DF068F9B4F857
:10216000CC51D4F8FC314544ED1BC31A5D43DAE78A
:102170000025DDE7012100200BF01DFF8046A06A4D
:10218000314640440DF053F93146C4F8F801A069D6
:102190000DF04DF907A9C4F8FC0108A805F0B6F840
:1021A000079B0093D4E98E01DDE9082308F08EFA3D
:1021B000074620460AF09BFBD4F84432A66A94F8FE
:1021C00069001E4405F0E8F9D4F8F811A38D943E97
:1021D000761AB044A8EB070800F5234030314FF4DD
:1021E0007A7703EB4101A130B0FBF7F0A8EB0007D1
:1021F00094F869000AF067FBD4F84432FB1A2230E5
:10220000B3F5917FCAF8040058D240F2C64130209D
:10221000FEF77EFBA36AD4F8EC01314618440DF0BA
:1022200006F93146C4F8F801A0690DF000F9C4F8C8
:10223000FC0120460AF05BFBB4F8CC31A66AD4F866
:10224000EC71002B40F08D80029B002B00F0898008
:1022500094F8690005F0A0F93E44D4F8F871943E72
:10226000D4E98A23F61BD4F8307280463E4494F8B1
:102270006900B61A05F090F94FF47A7300F2E73767
:1022800008F52340B7FBF3F73744A130B0FBF3F078
:10229000D4F8F811D4F8E831D4F8F021303102FB49
:1022A0000311A38D3F1A03EB410194F869000AF072
:1022B0000AFB0123CAF8040084F8F431A6696FF41C
:1022C000F4731E44D4F8FC31F61ADAF804309E4256
:1022D00028BF1E46D4E98E327F1BDF1942F100026F
:1022E0004FF00008C4E98872C4F8C86184F810820D
:1022F00004F130000CF077F9B4F8B811A4F840926A
:10230000D4E98823A1EB09090FFA89F9C145C4E989
:102310008E23C8BF022384F81882C8BF84F81832FD
:10232000039B30440D2BC4F81402029B00F09680EE
:10233000002B40F0948094F8F431002B00F0AD8035
:10234000A169D4F8FC3118EE100AC91A0BF0DAFDB5
:1023500080B2002800F0A180169B03B118800120F4
:10236000ABE0D4F8F801374492E7D4F8FC21A36934
:10237000D4F8F001D4F8E8119B1A5F43B4F8CC31DB
:102380009844C3439844D4F8F831303301FB003308
:10239000A18D94F8690002FB083301EB43010AF0B8
:1023A00092FACAF8040089E71C170020A369D4F840
:1023B000FC219B1A5F4394F88E30252B03D094F8B0
:1023C0008F30252B0AD1B4F85432A9EB03031A0439
:1023D00004D494F85732002B18BF9B46049B63B378
:1023E000B4F8CC314BBBD4E98A23D4E98C018242C6
:1023F0008B4102D340F21A5109E794F8690005F0C5
:10240000CBF8D4F830220646D4E98A01A2F194032D
:102410001B1A3B4494F86900049305F0BDF8049B33
:1024200000F2E7374FF47A7206F52340B7FBF2F774
:102430001F44A130B0FBF2F03F1AB4F8CC11D4F82D
:10244000FC31414459433031490058460AF03BFAC7
:102450001C4B586032E740F23251D8E6EBB1B4F889
:10246000E01121B3B4F8E22194F8E431A4F8E221B8
:1024700002FB0333994202F101000EDD94F8183299
:102480005BB1002384F81832A4F8E20101F070FD7A
:1024900000F00700013084F8E40118EE101A94F8F7
:1024A0000B0207F0DDF920B940F27B51AFE60A4696
:1024B000DAE7059B84F8083200200BB0BDEC028BF4
:1024C000BDE8F08F1C1700202DE9F04104460D46B1
:1024D000164690F8F83003F0FF071BB10C2738467A
:1024E000BDE8F0810146454807F06EF82028804697
:1024F000F4D05822394604F1D00008F00BFE84F8DD
:10250000D080C4F8D450FF2384F8F83035B101F0FE
:1025100047FD00F00700013085F8E40102234FF089
:102520000008A4F8083184F800810CF08CFF9E307C
:1025300085B220460CF02DFD014670B30BF086FAF3
:1025400000F5CD6081B230460CF071FF3044C4F824
:1025500004010CF098FF281841F10001C4E944017E
:10256000012084F8D800A4F826800CF0D0FDDB3ED2
:10257000361AC4F8DC604FF0FF326FF00043C4E954
:10258000462394F8D00004F5807107F069F948BB40
:1025900040F2C1113020FEF7BBF920460CF01EFCC2
:1025A000DFF85C80DB30C4F80401B8F8080048B1FB
:1025B000E08C38B101F0F4FCB8F80830B0FBF3F26D
:1025C00002FB130005440CF05EFF2D1841F10001E1
:1025D000C4E94451002ECED0751941F10001C4E97F
:1025E0004651CEE7D4E944230021C4E93A23C4E9A3
:1025F0003C2320460CF0EAFC71E700BFC1CB000091
:102600001C170020F0B5002385B0CDE9003301236D
:102610008DF806306846FEF7C1FD70B11B4E0123F0
:10262000B3720027CDE9027702A8FEF7B7FD054691
:10263000A8B10023B37205B0F0BD00980AF079FB91
:10264000E8E790F80B0207F0FFFE94F80B0284F81D
:10265000F45106F0E5FF202384F80B32E2E7029BF9
:10266000002BE1D093F80B22202ADDD018884FF6FA
:10267000FF739842DDD02946FEF756FD0446002838
:10268000DFD140F22B113020FEF742F91C17002059
:10269000054B00220121DA7219709A7242F210720F
:1026A0001A81FFF7AFBF00BF1C170020014BD87283
:1026B000704700BF1C17002008B504F013FB044B43
:1026C000DA6882422ABF987A002080F0010008BDB3
:1026D0001C1700202DE9F3470446062900F2C680A6
:1026E000DFE801F0047C69798085BF00D0E98A23A6
:1026F000D0E98C0182428B414BD294F80A32002BF4
:1027000047D094F8F431032B43D194F869A00BF02F
:102710009DF9074694F8B001FFF742FCD4E98A120C
:10272000D4F83032D4F8C861814607445046A3EB50
:10273000010804F029FF361A504604F02DFF00F579
:1027400023404FF47A72A130B0FBF2F0321AA2F1BA
:102750007401A2F1D403BFB2490809F5C8699D31DB
:102760007B431FFA89F9B3FBF9F360335A08A1EBF5
:102770005303984502D31144884501D90CF05FFEFC
:10278000A06939460CF053FE0023C4F8FC0184F81C
:102790000A32384B9B7A03F0FF0263B9B4F8BC11DC
:1027A000009201232046FFF709FC38B140F2CA61CC
:1027B0003020FEF7ADF8042384F8F43104F0A6FCD1
:1027C00006F0BAFDB4F88820A4F806220023A4F885
:1027D000423284F8093202B0BDE8F087032380F862
:1027E000F431F8E704F09EFAC4E98C01F3E7856957
:1027F000D0F8FC31DFF87C809D4288BFED1A98F854
:102800000B3098BF00251BB9036B9D4228BF1D46A6
:1028100004F13000D4F8C8710BF0E5FE0744022043
:1028200007F096FCEE1B26EAE676864228BF0646AF
:102830000221304607F0E0FC00B9374440F2D312E1
:10284000394620460BF020FFD4F8C831C8F80C00F8
:10285000A069184407F02CFC0028BCD140F2793163
:10286000A6E702B0BDE8F0470AF041B840F2657152
:102870009EE700BF1C1700202DE9F84306460C46D2
:1028800015467ABB04F02EFAD4E94489074684F849
:10289000D85084F8F8500121D4F8D40000F0D6FFC5
:1028A000D4F8D400C0E98A8994F8D02080F80B22AB
:1028B000C0E98E89C0F844720AF034F920B140F2C0
:1028C0000A713020FEF724F804F020FC06F034FDF5
:1028D000074994F8D000324605F0F8FB28B94FF4C8
:1028E000EF61EEE740F28F71EBE7BDE8F88300BFE0
:1028F00017C90000014B1881704700BF1C1700204A
:10290000F0B5070CA7F5AA42144B543A012A03EA82
:1029100090231FD927F4004042F6AA22801A18BF3C
:1029200001200022162116461F2487EA060562EAC6
:102930000505013510D0DD03ADB245EA5606E503C5
:10294000ADB2013945EA52024FEA53034FEA54044B
:10295000EBD1F0BD0020E4E70020FAE7E0FF3F0004
:10296000304BF0B51A88B0F85C70B0F85A605D88EA
:10297000974228BF1746964228BF16461B2E85B0A1
:102980000C462ED0B5F5A47F2DD040F648039D42CD
:1029900001A928BF1D460AF02CFBBDF80A309F4252
:1029A00028BF1F46BDF80C30E780AB4228BF2B463E
:1029B0002381BDF806309E4228BF1E46BDF8083070
:1029C00066809D4228BF1D46A580FF232370E388B3
:1029D0001B3B9BB2E02B08D940F2F7513920FDF7A1
:1029E00097FF1B2FCED105B0F0BD63881B3B9BB278
:1029F000E02B02D940F2F951F0E72389A3F5A47343
:102A00009BB2B3F5E06F02D940F2FB51E6E7A38831
:102A1000A3F5A4739BB2B3F5E06FE4D940F2FD5186
:102A2000DCE700BF2C17002010B501210020FEF7C5
:102A30007BFB044670B90121FEF738FB044620B940
:102A400040F23D313920FDF763FF034B93F9041049
:102A50000CF088F9204610BD2C17002008B50BF0AB
:102A600004FA00F0FFFD00F0EDFB0BF01BFD00F0A1
:102A70008DFF01F0A7FE00F0A1FF084B1B224FF4D1
:102A8000A4711A805980064B06499A800022196069
:102A9000DA825A821A835A7408BD00BF2C170020AC
:102AA000541B002003021B00044B41F64C52C3E9A7
:102AB00002221B221A74FFF7D1BF00BF541B002053
:102AC0002DE9FF41344DAB68044640F8303F0AF031
:102AD00067F9064600F0A6FB2B7C84F838302F4BB4
:102AE000668710F0200F1B681DBFAA886988A4F8AC
:102AF0005A101B2208BFA4F85A20A4F85C201BB16E
:102B000094F96C1020889847AE7CEF7CB5F814805F
:102B100041F64C53A36116B900F08AFB064677BB19
:102B200000F086FB074666B358B303A920468DF82C
:102B30000C608DF80D70ADF80E800BF038FAAB8894
:102B40006A886978019103332978009103329BB236
:102B500092B204F1140104F11000FEF757FB23694F
:102B600013B940F2CE5114E0636913B940F2CF516A
:102B70000FE0002004B0BDE8F0810920FAE7002E44
:102B8000D3D120880021FEF7E5FA0028F5D040F2E5
:102B9000B9513920FDF7BCFE541B00200C05002064
:102BA000F7B505460E460CF014F9002873D02846F8
:102BB0000CF0EFF940B1B6F80130013B7F2B03D99F
:102BC0001224204603B0F0BD28460CF0E6F908B9FF
:102BD0000C24F6E728460AF098F90028F8D1284690
:102BE0000CF0B1F804460028F2D1284602F0AAFA07
:102BF0000028E5D0B6F80170F17842F2107228464C
:102C000057430CF0B3F928460CF0BBF9014658B90C
:102C10003A462846FFF758FC04460028D1D041F632
:102C200083113920FDF774FE21460DF10600FEF7F1
:102C300005FA064668B3214600F008FEBDF80630E6
:102C40003380284631460CF0B2F928460CF0ABF937
:102C500098B928460CF0A9F901463046FFF730FF35
:102C600004460028ADD13A4631462846FFF72CFCF1
:102C7000044620B141F6A611D3E70121EDE7074B49
:102C80009B68002B9DD0024606F59571304698470B
:102C900097E70D2495E7422493E700BF2C17002007
:102CA000034B5A8802801B7883700020704700BF56
:102CB000541B002037B583781A2B054609D8042BFE
:102CC00005D9012202FA03F3134A134205D1122453
:102CD0001AE0292B01D03B2BF9D12888B0F5706F71
:102CE000F5D269460BF001F988B9019B93F82821C8
:102CF00002F0FF046AB9AA7883F82921FF2283F839
:102D0000282168460BF0A9FB204603B030BD022401
:102D1000FAE70C24F8E700BF200038040188A1F18D
:102D20001B039BB2E02B0CD84288A2F5A4739BB284
:102D300044F24810834204D8034B002019805A8083
:102D400070471220704700BF2C170020034B1A88D1
:102D50005B88028043800020704700BF2C17002052
:102D600038B504784278857804F0010352EA03010B
:102D700004F0020401D1112038BDBCB9002DFAD0F5
:102D8000002B08BF144601E00024254620460AF027
:102D9000FBF80028EFD028460AF0F6F80028EAD021
:102DA000054B00209C74DD749882E5E7002BEBD185
:102DB00014461D46EAE700BF541B002013B50088E7
:102DC00069460BF092F818B10224204602B010BDFB
:102DD000019A92F8F431DBB292F8B020002AF3D1D4
:102DE00013F0FB0FF0D0019890F83A310BB13A2470
:102DF000EBE790F8DC3003F0FF04002BF7D190F8FC
:102E0000D3309B0706D1FF2380F83A3168460BF098
:102E100024FBDAE70249D4300BF06CFBD5E700BFA6
:102E20001DEC0000F0B50778EF2F85B004460D4685
:102E300003D91225284605B0F0BDB0F80130ADF831
:102E40000C309DF90C209DF80C30002AF1DB9DF828
:102E50000D209107EDD1DA063FD49E0603F0030260
:102E600038D5002AE5D11807E3D46378190711D4BF
:102E70002179E278E07942EA0122617942EA01426D
:102E8000A17941EA0021207A41EA00418A42D0D862
:102E90001F2ACED9627A013A062ACAD8A27A032A10
:102EA000C7D813F0040102D1023A012A03D8E27A0A
:102EB000012ABED811B9A27C032ABAD813F0100196
:102EC000227D19D0012AB4D1227E012AB1D8B1B90C
:102ED0001125AFE7032AC6D1ABE713F0600FA8D1E5
:102EE00003F00F0203F00703052BBED0931E012B46
:102EF000BBD9002A9DD1B8E7022AE5D199E7DA07C4
:102F00001FD46378227D03F0180108291ED1022AFC
:102F1000DED11B0709D4E279A37943EA0223227A9E
:102F200043EA0243B3F5804FD2D8BFB201213846FD
:102F3000FEF7FAF8064678B109F0E7FFB8B10C25BC
:102F400078E700F031F90028DBD1C1E7022AE0D0B0
:102F5000A27E002ADDD0BBE701213846FEF7A6F8A5
:102F6000064650B3164B93F904100BF0FBFE3046A7
:102F70000CF004F821462870E07430460BF04AFF4C
:102F8000637E0546002B3FF455AF00287FF452AF17
:102F9000316B02466846FEF7FDF9306B2A46012187
:102FA00009F0D3FB316B68460422FEF7F3F9306B6E
:102FB0002A46294609F0C9FB3CE707253AE700BF46
:102FC0002C17002070B50579042D8AB0034658D817
:102FD0004488B4F5804F54D82B48465D28440021DE
:102FE0004279857AC07BADF8041042F0100242EAC3
:102FF000460242EA850242EAC00202F01F028DF850
:103000000420BDF80420ADF80D201A888DF80F209B
:103010008DF81240120A240A8DF811108DF8141040
:103020008DF810208DF813405A7B8DF815205A79B1
:103030008DF816209A79D3F807008DF81720B3F889
:103040000B209B7B8DF81E307F238DF81F300123D2
:103050008DF80C1006908DF82110ADF81C208DF81D
:1030600020308DF8223003A88DF823108DF824101D
:103070008DF825108DF8261001A9FFF7D3FE0AB0B0
:1030800070BD1220FBE700BF78A60200027803465D
:1030900072B1427862B142881A2A09D982881A2A02
:1030A00006D9044A006810609B889380002070470E
:1030B00012207047541B0020024B02689A600020C7
:1030C000704700BF541B00200378A3F10A02112AA5
:1030D0009DBF024A0020137412207047541B002029
:1030E00008B5052000F090F803F012FA014B024AEF
:1030F0009A6008BD2C1700206129000008B502F075
:1031000009F8FFF7C5FABDE80840014801F0ECBF37
:103110003817002010B50B4C012384F8023102F05F
:1031200001F80CF0B9F80AF09EFE04F203112046F3
:10313000FEF734FB002009F0A7FABDE8104000F0CC
:1031400029BE00BF3817002010B5064C064904F50B
:1031500002700AF040FC04F503700449BDE8104019
:103160000AF039BC3817002010050020180500208F
:1031700010B5094C094904F502700AF02CFC04F55D
:10318000037007490AF027FC04F504700549BDE8FF
:1031900010400AF020BC00BF38170020280500208E
:1031A0003005002020050020014B93F802017047F4
:1031B0003817002010B5074C00F0C8FDD4F80802FD
:1031C0000AF001FCFFF770FC00F002FF012384F815
:1031D000143210BD38170020014B93F814027047C9
:1031E0003817002010B5074CD4F80C020AF0EBFB9E
:1031F000D4F810020AF0E7FBFFF730FC002384F854
:10320000143210BD38170020C2080549012300F010
:10321000070003FA00F08B5C18438854704700BF26
:10322000D0040020014BD3E900017047D0040020F6
:10323000034B1868C0F30020400040F001007047C5
:10324000D004002008B50CF0FCF8084A002332F83E
:103250002310814205D302EB83039B78044A137049
:1032600008BD01330C2BF2D10023F7E78CA6020036
:103270004D19002010B544682388A4F8783194F8DB
:10328000683084F87711012B06D0022B04D040F26D
:1032900017310620FDF73CFB84F87A3194F8693049
:1032A000012B01D0022BF2D184F87B31044904F5C3
:1032B000B7700BF01FF9002384F8343110BD00BF44
:1032C00051DA0000406808490388A0F86A3190F894
:1032D000603080F86C3190F8613080F86D3100F228
:1032E00061100BF001B900BF67DA0000044B002247
:1032F00083F822204FF6FF729A84DA841A85704789
:103300004E190020054B9A8C824201BF002283F89F
:1033100022204FF6FF729A84704700BF4E1900209A
:10332000014BD884704700BF4E190020084B998C80
:103330004FF6FF72914206D193F82220012A04D061
:10334000036001207047002303600020704700BF26
:103350004E190020064B93F82220012A1FBF01209E
:10336000DA8C83F822009A8408BF0020704700BFDF
:103370004E190020014B1885704700BF4E190020E0
:10338000064A918C138D994205D192F8223013B1DF
:103390000260012070470020704700BF4E190020D6
:1033A000094B998C1A8D914201D0002070474FF63D
:1033B000FF729A8493F82220002AF6D0002283F824
:1033C00022200120704700BF4E190020054B998C28
:1033D0001A8D914203BF93F82200B0FA80F04009A1
:1033E000012070474E19002050B90A4A13460120A7
:1033F00003F8010B0868C2F801008A889A807047B8
:10340000012805D1034B0A689A608A88D8719A818D
:10341000704700BF7819002048B90A4B187880B16E
:10342000D3F80120B3F805300A608B80704701287B
:1034300006D1044BD87920B19A680A609B89F4E7D9
:10344000002070477819002020B9054B187800F04B
:103450000100704701280ABF014B0020D879F6E728
:1034600078190020F7B500228B888DF80600ADF89A
:10347000043008680C4B8DF80720019D1C7801462C
:1034800003F5AC73D0B2844201D8082009E0D3E937
:103490000076AE4208BF8F4203F1080302F1010239
:1034A000F0D103B0F0BD00BF8819002030B5094B42
:1034B00001465C78002203F58173D0B2844201D8C2
:1034C000082005E013F8015B8D4202F10102F4D1FE
:1034D00030BD00BF88190020F0B5254D95F8984102
:1034E00089B0224605F29911684607F09DFD2146F4
:1034F00068460AF0D9FC0446B8B300EB4001C9B2F3
:1035000002A8FDF78DFB601E95F8A161C0B20124F1
:1035100095F8982105E0731CB3FBF2F102FB11331F
:10352000DEB206F120030DEB030111F8203C002B65
:10353000F1D100EB400220326A4406EB46032B44F3
:1035400012F8187C83F8A27112F8177C12F8162C66
:1035500083F8A37183F8A42101F8204C0138AB193A
:10356000C0B2FF2883F89941D2D109B0F0BD00BFA5
:103570008819002070B5064688B00C46002A4FD046
:103580002A4A92F8A131D01890F8991121B94FF434
:1035900080712820FDF7BCF903EB4301114401338E
:1035A00091F8A251E57091F8A35191F8A4116171BD
:1035B0000021257180F8991192F89811B3FBF1F070
:1035C00001FB103382F8A13192F8C23123B91849B6
:1035D00002F5DD700AF08BFF657905F03F0545F0D7
:1035E000400565710D220021684607F093FDE378E0
:1035F0008DF80F3023798DF80E3004AA0423694624
:1036000030468DF80D5007F0B3FA9DF81F30237047
:103610009DF81E3063709DF81D30A37008B070BD1A
:1036200003216018FDF7FCFAD6E700BF88190020D7
:10363000D9340000044B5A78824286BF1B1893F895
:103640004A010020704700BF88190020044B5A78B7
:10365000824286BF1B1893F842010020704700BFCA
:1036600088190020064B00224FF461711A8083F8FC
:10367000C32183F8C421A3F8C61183F8C22170477F
:1036800088190020014B83F8C40170478819002075
:10369000014BB3F8C60170478819002030B50A4BBA
:1036A0005C7884420ED9184490F802012B3003EB69
:1036B000C004A5790D7053F830001060A388938082
:1036C000012030BD0020FCE7881900200246074891
:1036D00010B590F8C34124B1417821B1023002F015
:1036E0003DFF204610BD0C46FBE700BF88190020B7
:1036F0002DE9F74F2F4C00921A466378834280469B
:10370000894654D9231893F8425185F00105E9B14F
:1037100093F84A31D3B945F002070135C2B9F90728
:103720000BD5062101FB084104EB081001F585715A
:1037300082300092FFF71EFF009ABB0733D504EBDF
:10374000081049460230FFF715FF2CE02F46E5E749
:1037500094F8A1614FF0010A002DE0D004EB060BB4
:103760009BF8991199B9009B0192D3B100F000FC2C
:1037700006EB460121444FEA102C81F8A201019A80
:1037800081F8A3C1000C81F8A4018BF899A194F8E9
:1037900098110136B6FBF1F001FB1066F6B2013D5F
:1037A000DAE747F00407384603B0BDE8F08F00279A
:1037B000F9E700BF88190020074B5A78824209D9DF
:1037C0001A1892F842212AB9062202FB003000F5AD
:1037D000857070470020704788190020064B5A7882
:1037E000824281BF1B1893F83A01B0FA80F0400979
:1037F00098BF0020704700BF8819002030B5002412
:10380000A0F84240B0F8464042F210754C43B4FB79
:10381000F2F4A0F84640541E05FB0343B3FBF2F359
:10382000A0F84430084BB3FBF2F30133A0F84A3060
:10383000838F05FB0344436BB4FBF2F45943846369
:10384000B1FBF2F2426330BD005A620270B5044629
:103850000D4649BB4FF4207207F05CFC012384F84D
:1038600096306FF0360384F8E330042384F8E430B4
:103870006FF03B0384F8E5306F2384F8E6306FF097
:103880003F0384F8E7302B2384F8E230FE2384F8EA
:103890001E317F2384F88D30202384F8E85084F88B
:1038A000E95084F80B3270BD012922D10023A0F821
:1038B000CC3180F8C331154B82691344B3FBF2F36A
:1038C000C0F8B83040F6B833A0F8BC301146438C8D
:1038D0008030FFF793FF07F063FA30B1E069FFF73C
:1038E0000FF810B984F8AF51DDE7002384F8AF3149
:1038F000D9E70229D7D1B0F86232D0F85C228169C9
:10390000BDE870408030FFF779BF00BF7FC3C901B9
:10391000034B80F86C101B680BB100881847704788
:1039200038050020074B93F900301844142804DCB4
:1039300010F17F0F03DB40B27047142070476FF027
:103940007E007047501B002007B57F230DF1070054
:103950008DF8073003F0A6FC9DF9073068B10A4ADC
:103960005078404243FA80F0142808DC10F17F0FB1
:1039700007DB40B203B05DF804FB1846FAE71420F9
:10398000F8E76FF07E00F5E7501B0020024B0022A5
:103990001A705A70704700BF501B0020054BFF2261
:1039A0001A70054A016811600179117100221A70BC
:1039B000704700BF521B0020D804002007B5064BFB
:1039C000186800901B798DF804306846FFF7E6FF11
:1039D00003B05DF804FB00BFEAE00200437843B1A6
:1039E000C2783A2A07D80549885CC31A5842584118
:1039F0007047184670470120704700BFBCA6020000
:103A00003A2908B5C17003D8064B5B5C437008BD0A
:103A1000FF2904D04FF489612A20FCF779FF0123A4
:103A2000F4E700BFBCA602002DE9FF478A4602A9C1
:103A3000154699460AF059FA064600283CD1039FDC
:103A400035B9012487F89540204604B0BDE8F087D9
:103A5000D7F810802946404608F050FC044600285C
:103A6000F2D0174B5B88AB4228D3014601AA4046EF
:103A700008F087FD97F895300198002B0CBF514650
:103A800002210AF013FC01982A464946033007F048
:103A9000CBFA2946404608F076FC044618B97A214C
:103AA0002B20FCF735FF02A80AF0D7FC039BA3F8F4
:103AB000BA6187F89560C7E70124C5E73446C3E7D4
:103AC000541B0020024B987DC04300F0010070475A
:103AD000541B0020034B987D80F00200C0F340008F
:103AE000704700BF541B002083230B70014B1B78D1
:103AF000CB707047701B00207FB505460C4621B97E
:103B00004FF48B711020FCF703FF03888B80002398
:103B10004B724669304608F026FD014610B940F266
:103B20001F11EFE701AA304608F02BFDE08010B925
:103B30004FF49271E6E7FB2802D94FF49371E1E765
:103B400001980AF0BBFB012801D0022805D12072A0
:103B5000206828B940F23D11D4E74FF49B71D1E7BA
:103B60000199E288033107F05FFA304608F011FD51
:103B700010B94FF4A171C5E70021304608F067FC89
:103B800010B940F24711BDE70A4BDA7D82B11A8BBA
:103B90002888013A02A91A830AF0A7F910B14FF454
:103BA000A871AFE7039AB2F8A6300133A2F8A630A5
:103BB00004B070BD541B00202DE9F74306460D46A6
:103BC0004FF0050800274FF003092B6943B11B7A1A
:103BD00033B12C69A4B90022104603B0BDE8F083CC
:103BE0006C68237A012BF6D0EFF3108372B66A6803
:103BF00012686A6003B962B6237A002BE5D02C61A3
:103C0000237ADBB284F80880013B0B2B65D8DFE810
:103C100003F0610620335E643C646464645163684D
:103C200023B94FF4EE711020FCF772FE31462046A6
:103C300098470422EFF3108372B6217A0529C8B29F
:103C400001D0002852D127722F61002B4AD162B6D1
:103C500048E0636813B940F2E511E4E731462046D5
:103C60009847C0F30723012BADF80400C2B237D048
:103C7000022BDFD12F6135E0636813B940F2EF11F9
:103C8000D1E7204698470022D4E763680BB9DB21CF
:103C9000C9E70B2232701988A6F80310012200240C
:103CA000B27072711869B471214608F0D0FB2C61B2
:103CB000042291E7606810B940F21A21B3E70E4B75
:103CC00031461B68984700232B61022284E740F2AB
:103CD0002321A8E740F22621A5E740F22921A2E707
:103CE00084F80890002A3FF470AF75E7002B7FF44A
:103CF0006CAF62B669E700BF3C05002038B5124CD6
:103D0000231D14220021184607F004FA034601255A
:103D1000257414220433002104F11800C4E901338E
:103D200007F0F8F984F8245004F11C03C4E90633C1
:103D30000023E362236384F83430C4F83530C4F8D8
:103D4000393084F83D3038BD701B002010B5084C68
:103D50002378FF2B04D04FF4B7711020FCF7D8FD67
:103D600006F04EFF2070BDE81040FFF7C7BF00BF50
:103D7000DD04002010B5034C207806F05DFFFF2322
:103D8000237010BDDD040020014B187806F064BFDD
:103D9000DD040020014B024A1A6070473C050020F8
:103DA000F93A000038B50B4D05F118010446FFF74C
:103DB00003FF70B9AB681B7A0C2B04D1064BDA7D7C
:103DC0000AB11B8B2BB120460449BDE83840FFF7F0
:103DD000F3BE38BD701B0020541B0020741B002054
:103DE00010B51346027A22B140F2C9211020FCF727
:103DF0008FFD0A46BDE81040014601480AF054BB59
:103E0000741B0020044890F834301BB903492C304F
:103E10000AF067BB704700BF701B00209BE40000E6
:103E20000346064890F83E203AB190F83D2022B96A
:103E300000F8353B02490AF054BB7047701B002064
:103E4000E93A000010B50A46037A23B140F2D121C5
:103E50001020FCF75DFD0146BDE810400148072336
:103E60000AF022BB881B00201346027A0AB10372B3
:103E700070470A46014601480AF016BB741B002031
:103E80001B234FF01B128384038482618382C260F0
:103E9000038539B94FF4A473034AC3844384C261D0
:103EA000C3820261704700BF480148010346F0B475
:103EB000B3F85420B3F84840B3F84460DF8FB3F848
:103EC0004250944228BF14460846B3F84C20B3F839
:103ED0005610DC878A4228BF0A46B3F84610A3F87A
:103EE0004220914238BF1146A64238BF2646A7421B
:103EF000A3F84460A3F846101FD1AA1A18BF0122E4
:103F0000B3F84A50B3F85040B3F852709E8FB3F8EC
:103F10004010A54228BF2546B3F84E409D87BC42BD
:103F200028BF3C46AE42A3F8404002D1A14200D196
:103F30002AB1F0BC03490AF0DDBA0122E0E7F0BC87
:103F4000704700BFFBE400000B8BA2F80B304B8BDB
:103F5000A2F80D308B8BA2F80F30CB8BA2F80900A2
:103F60000249A2F8113010460AF0BEBA4BE5000033
:103F7000094AD2E90003434083EAB01181EA4321B0
:103F80004FEAF3435360054B116058434FEAF0602A
:103F900000EB8000704700BFB01B0020BB79379E4C
:103FA000094AD2E90003434083EAB01181EA432180
:103FB0004FEAF3435360054B116058434FEAF060FA
:103FC00000EB8000704700BFE0040020BB79379E03
:103FD00010B50A4C09480821FCF722FED4E9002359
:103FE0001343F7D0064CFFF7DBFF2060FFF7D8FF45
:103FF000236860600343F6D010BD00BFE0040020DA
:10400000B01B0020174B184A9A60184A5A60184A89
:104010001A60184A9A62184ADA62184ADA60184A2C
:104020009A61184A1A63184A1A62184ADA64184AD6
:104030009A64184A5A62184B184A9A60184A5A6287
:10404000184ADA62184A1A61184A5A61184A9A617B
:10405000184A1A63184A9A64184ADA64184A9A6322
:10406000704700BF4005002013E8000049E8000049
:10407000C1E8000049EA00009DEA0000C9430000D1
:10408000B3EA000039460000AD44000093EB0000A5
:10409000AFEB0000054500002C06002035E80000CD
:1040A00053EB0000D5EA000079EA0000F9EA0000CD
:1040B0004D4400003BEC0000E7EB0000D5EB0000B6
:1040C00039EB0000044B054A5A65054B054A1A6551
:1040D000054A5A65704700BF4005002081E900008D
:1040E0002C06002067E90000F1E90000054B064AB4
:1040F0009A65064A1A66064B064A9A65064ADA65C2
:10410000704700BF40050020AFDB000045DC000029
:104110002C060020EBDA00002BDE0000252A70B50B
:1041200005460C4618D8012A19D9023A232A16D86E
:10413000DFE802F01A1525242433153515243944F7
:104140004815154D242467676D741515151515153B
:104150001515151515808990FF2A00F0828040F210
:10416000FE315120FCF7D4FB02784368012A02D1CA
:1041700093F8203101E093F82931237170BD416833
:10418000204601F5EB710AF003F96968204601F554
:104190008A71BDE870400AF0FDB84368E8E7BDE801
:1041A000704000F011BA0E230B7159234B7100239C
:1041B0008B719A23CB7110230B72DFE7436893F85E
:1041C0001A31DAE7BDE87040084600F0EBB9037831
:1041D000466873B996F820315BB196F81D112046F8
:1041E0000AF029F996F81C112046BDE870400AF043
:1041F00026B996F81B1120460AF01DF996F81A11F7
:10420000F2E741682046BDE870400AF0B7BA43685B
:1042100093F83621227193F8373109E0436893F817
:104220003421012AF4D093F864200A7193F86530A0
:104230006371A3E7104B1B68002B9FD0024623201D
:10424000BDE8704018470C4B1B68002B96D0024607
:104250002420F5E7084B1B68002B8FD00246252051
:10426000EEE74368204693F84F22D3F85012BDE89A
:1042700070400AF027B800BF180700203A289ABFFC
:10428000024B53F820000020704700BF400500207B
:104290003A289ABF024B53F820000020704700BF15
:1042A0002C060020F7B545682E6904464FF6FF77C7
:1042B0000DF102010DF101023046ADF8027008F077
:1042C0007EF801A9304608F09DF840B1019808F049
:1042D0005EF9616800220272FFF7B4FDE8E7044965
:1042E00005F1A80003B0BDE8F0400AF0FDB800BF3A
:1042F000ADE70000F0B5044685B00D46FF2600F896
:10430000856C10F8863CF3B1174F3B781BB1482100
:104310001F20FCF7FDFA0C21381DFCF781FC3E70D4
:10432000002304F8853C2A46072302F8033BD4F80F
:104330000930C5F80330D4F80D305360D4F811308B
:10434000936005B0F0BD01A80C21FCF769FCA4F551
:10435000A873039A1A6001AB03CB44F88E0C44F89F
:104360008A1C04F8866CDBE7B81B002010B5054CEE
:1043700023782BB90C21201DFCF752FCFF2323705E
:1043800010BD00BFB81B0020024690F8DE31BBB95B
:1043900090F8DF3103F0FF010BB100207047094BAB
:1043A00018780028F9D01970D968C2F814110433AC
:1043B00003CBC2F8D601C2F8DA11FF2382F8DE314E
:1043C00001207047B81B002038B5426892F88F3042
:1043D00004460D463BB1132B05D0113B0B2B94BF6C
:1043E0000820012038BD92F8D23013B920460AF0D7
:1043F00083F96168284601F5E77109F0BEFF61683D
:10440000284601F5887109F0BFFF61680B88A1F8A3
:104410006D32284601F26F2109F0A7FF6168284636
:1044200001F2772109F0A6FF6368002583F8DE51C9
:104430006068054900F519700AF053F863681522A1
:1044400083F88F202846CDE7F542000038B5436851
:1044500093F88F201C2A044604D040F2BB111F2081
:10446000FCF756FA93F8D2101D88002283F8D12069
:1044700003F5D17069B10B4983F8D220A3F8AC5190
:1044800083F8AB210AF02DF86368002283F88F20AF
:1044900038BD012283F8AB11A3F8AC51024983F86F
:1044A000AE21EFE735EA000027EA0000436830B5A7
:1044B000D3F8804014F001001FD14D68104A89687C
:1044C000A3F8CE002A40C3F8E220C2F3076242F00C
:1044D000080221F41E5121F0100183F8E52093F821
:1044E000D0200904090C013244F00104C3F8E6109D
:1044F00083F8D020C3F8804030BD0120FCE700BF26
:104500002FC904F710B5406890F88E30042B2FD1D6
:104510004C688A68184B22F41E522340C0F8E230DF
:1045200022F01002C3F3076343F008031204120CD5
:1045300080F8E5300023C0F8E62080F8CC3080F821
:104540008E3090F8842102F0FF049AB90388A0F815
:10455000863180F885414B68C0F888318B68C0F897
:104560008C31064900F5BE7009F0BBFF204610BD36
:104570000124FBE71C46F9E72FC904F717EB0000FD
:10458000406890F8843153B90388A0F886311A2323
:1045900080F88531024900F5BE7009F0A2BF70476E
:1045A00017EB000010B50446FEF73CFE21F41E5147
:1045B000044B21F0100109040340090C6360A16061
:1045C00010BD00BF2FC904F737B50C464568FEF78C
:1045D00029FE0A4B95F8E22021F41E5121F010012A
:1045E000034009040093090C13408DF80030019139
:1045F0006B4603CB6060A16003B030BD2FC904F7E8
:10460000DB0410B5144604D5037D13B100234363C6
:1046100010BD436B013343630AF0F2FAD0E90D2376
:104620009A42F5D30023436302492046BDE8104077
:1046300009F060BF85EB000038B5446894F88E300F
:10464000012B0D4603D0D4F88030980745D494F858
:10465000D330990719D4284609F09FFE84F8DD006D
:10466000B5F80530A4F8DE30B5F80730A4F8E0302E
:1046700094F8D33043F0020284F8D320DA0711D53E
:10468000174904F1D40009F035FF94F8D330DB0763
:1046900018D4D4F8803013F0020208D055214020FD
:1046A000FCF736F994F83A31002BE9D1EDE743F005
:1046B0000203C4F8803094F8D030A4F8CE2001333F
:1046C00084F8D03094F88E30012B4FF0000003D1E5
:1046D00084F88E0084F8CC0038BD0120FCE700BFD0
:1046E0001DEC000070B545680446FFF72DF9054B39
:1046F00085F88D001B6801461BB12046BDE870405F
:10470000184770BD20070020024B1B6803B11847F3
:10471000704700BF1C070020F0B5204D2B78002407
:104720001470CBB3013B6F68DBB21D1B012D0BDC9A
:1047300007EBC40557F834606D688D4208BF8642A8
:1047400012D114700120F0BD1D196E1007EBC60EBA
:1047500057F836C0DEF804608445C5F347058E413E
:104760002CBF2B462C46E0E7B04271EB050502D288
:1047700014700020E7E707EBC30457F83350646870
:104780008C4208BF854201D11370DBE7A842A141EA
:1047900028BF01331370ECE71846D4E7D81B00207C
:1047A00010F0070208B503D063214820FCF7B0F8E9
:1047B00018B1034B197258601A70C80008BD00BFC9
:1047C000D81B0020014B00221A707047D81B002014
:1047D000014B187A704700BFD81B00202DE9F74322
:1047E0000AF056FA0DF1070206460D46FFF794FF50
:1047F00098B910490A780B7A93420ED04C68134648
:104800006FF060479DF80700984209D304EBC0039E
:10481000C3E9006501320A70012003B0BDE8F083EE
:10482000D81904EBC000D0E90089013BC0E9028936
:10483000DBB2E7E7D81B002037B50AF029FA0DF103
:104840000702FFF769FF0446A0B10C4A9DF8070074
:1048500013785568013BDBB213701A1AD2B2411CAF
:10486000D200834238BF002205EBC10105EBC00036
:1048700006F096FB204603B030BD00BFD81B0020D9
:104880000A46822302F8033B04480368C1F8033058
:104890004368536083689360704700BFE11B00204A
:1048A00002481622002106F035BC00BFE11B0020A3
:1048B00082B002AB03E903000B48437D93B153067A
:1048C00010D50A880280D1F83022B1F888304260D1
:1048D000D1F8342205498260438002220C3002B0B4
:1048E000FFF7C2BA02B07047E11B00208148000008
:1048F00038B5074D044600F15101286809F04CFC19
:1049000094F850102868BDE8384009F053BC00BF47
:10491000F81B0020F8B504460E466588407F15F068
:10492000040508BF2946134618BF04F15F0132464B
:10493000FEF7DEFEC20705460BD5012384F8503092
:10494000607FFEF739FF0368C4F851308388A4F80C
:104950005530AB070CD5094E0127306884F85E70DE
:1049600004F15F0109F01FFC3068394609F02BFCA7
:1049700085F00400C0F38000F8BD00BFF81B0020E4
:1049800038B5C38D0E4D0133C385AB7C04462BB1C6
:1049900002F07AFC01F014FE0023AB7400232B71AB
:1049A00094F879302BB101212046BDE8384008F059
:1049B0006DBA637C13B1E28D9A42F4D20021F3E721
:1049C000F81B002010B5094C2379012B02D0237964
:1049D000022B05D1A37C1BB102F056FC01F0F0FDC7
:1049E000E069BDE81040FFF7CBBF00BFF81B002017
:1049F00070B5294C2379012B07D02379022B04D0E1
:104A000040F63C412D20FBF783FFA0B90125A37C94
:104A10001BB102F039FC01F0D3FD002D3AD0E06962
:104A200008F0ACF9002830D002F01EFB236ABDE884
:104A300070409B6818472168E26911F8095B02F130
:104A40005103E80992F8502009F010FA0028DDD04F
:104A50002068002109F0DCFB0028D7D02379E06929
:104A6000012B05D02379022B02D040F61541C9E76E
:104A70002379226A03F180435269013B05F00F015B
:104A800052F8233098470546C1E7E069BDE8704019
:104A9000FFF776BF70BD00BFF81B0020074A034632
:104AA000D06903B909B9FFF76BBF1379126A03F133
:104AB00080431269033B52F823301847F81B00204B
:104AC0002DE9F043032985B0054690467BD090F848
:104AD00078300529DBB202D14288D0075FD5002BA0
:104AE0005DD10127DFF8E89099F81260B6B109F0BE
:104AF000F2F9082888F8000014D002AA0DF1070185
:104B0000FEF7CCFD20B940F685612D20FBF700FFB4
:104B10009DF8070002A90AF0C7F8064698F8003089
:104B2000082B08D1D9F8001011F8030BC0F380103E
:104B30000AF0BAF80646D9F8001095F8572011F88F
:104B4000030B05F15803C0F3801009F08FF9D9F871
:104B50000010044611F8030BC0F3801009F0B1F9FE
:104B60008146FEF73BFE40B1B9F1080F1CD0484624
:104B7000FEF760FD80F00100C0B298F80020082A1E
:104B800016D09CB96B7F991A4B424B416A885207E9
:104B900006D420B99EB9EB7C9BB1BB4211D0002357
:104BA000184605B0BDE8F0830020E6E70123EDE7F5
:104BB00014B180F00104E4B204F00103E6E73346E7
:104BC000EEE70123ECE743889B07E8D5022789E756
:104BD000F81B00202DE9F04F85B008230DF10702E6
:104BE000052104468DF80730FFF76AFF064620B915
:104BF0000026304605B0BDE8F08F7A4F3968FA7C60
:104C000011F8030B07F11403C0F3801009F02EF91B
:104C100080460028ECD13B68216A184691F896201E
:104C200010F8035B02EA551202F0010281F89620A7
:104C3000D3F80320C1F803208288A1F80720194681
:104C4000226A11F81F0BC0F38010907009798DF85B
:104C50000C10D3F80F10D3F81F00D161597D0290CA
:104C6000187D090441EA0021D87C01435162B3F860
:104C7000191040F2E24909FB01F191619D7DC5EBFC
:104C8000451105EB810505EB85056D009585B3F8AC
:104C9000171009FB01F19162B3F81B101184B3F8EE
:104CA0001D10518493F8243003F01F015B0982F832
:104CB000A21082F8B031256A94F912B002A905F168
:104CC000960009F0C1F940F20113A5F868304FF0E1
:104CD000FF0A85F86AA0414605F13000FFF7D0F8D9
:104CE00059462846FEF714FE236A84F883801A8802
:104CF000A4F8842084F8A1A04FF6FF72A4F8A220A3
:104D00009A69B2FBF9F2A4F89A201A8CA4F89C20B4
:104D10005A8CA4F89E2093F8B02184F8A020227F1A
:104D20009DF8070004F18E015AB394F85020012A2F
:104D300027D194F8562002F0C002402A21D1D4F89D
:104D40005120C4F88E20B4F855208A809A7884F8CF
:104D50008720082803F1030504F18802D3F8033003
:104D600004F1940134D0C4F89430AB888B8004F102
:104D70008701FEF793FC40B940F69B312D20FBF7ED
:104D8000C7FD0022C4F88E20DFE794F8873043F097
:104D9000020384F88730144904F17A0009F0A1FB7A
:104DA000236A12491A88A4F8BB2093F8963084F835
:104DB000BD3004F1B20009F094FB0D4B206A1B6872
:104DC00000223A71002B3FF414AF2146984710E7B8
:104DD000C4F88830AB8893800023C4F894308B806B
:104DE000D9E700BFF81B0020EBEC0000BDEC000091
:104DF00028070020032973B5044604D0052952D0A2
:104E0000012002B070BD08230DF107028DF80730B4
:104E1000FFF756FE0028F3D0237C284D03B39DF8FE
:104E2000070094F8C630DBB9237884F8C730082827
:104E300004F1C90228D004F1C801FEF72FFC20B903
:104E400040F6FB612D20FBF763FD94F8C83043F07A
:104E5000020384F8C8301A4904F1BE0009F041FB8E
:104E60002B68062204265A701E702046FFF740FD6C
:104E700094F84020E16B286809F0BBF928682E718E
:104E800002F092F90020BCE72868034613F8031BE0
:104E9000C1F3801184F8C810D0F80310C4F8C91009
:104EA0009B889380D7E7074B1B6823B1984780F016
:104EB0000100C0B2A5E71846A3E700BFF81B002019
:104EC000D3EC000024070020F8B504460F4619B3C0
:104ED00000F1280528460AF0F3F8A0B963881A07FC
:104EE0002ED528460AF003F9064628460AF0E8F8C7
:104EF000301AC0B20AF00BF9444A93681844906023
:104F000028460AF0B9F828460AF0BBF802F040F843
:104F10002179252001F036FF3C4D94F85E20286869
:104F20000023037043706388103B0D2B5ED8DFE8CD
:104F300003F0595D550C5D405D5D5D5D5D5D5D40FF
:104F40002046BDE8F840FFF71BBD06234370202331
:104F500003702046FFF7CCFC638823F008039BB264
:104F6000152B05D094F83820616B286809F032F9C8
:104F7000286802F019F9032321792B71002002F02F
:104F80000DF8064607B9E86063881B0704D50AF0E8
:104F9000BBF83044C4F8E0006388103B0D2B30D8D8
:104FA000DFE803F0322F29292F292F2F2F2F2F2F22
:104FB0002F290C2343702123037042B104F15F01B8
:104FC00009F0F1F80121286809F0FDF8C1E704F1C2
:104FD000580109F0E8F894F85710F4E70623037035
:104FE0004370B6E7022303700623F9E740F2266117
:104FF0002D20FBF78DFC21790120BDE8F84002F05F
:105000005DB940F6AA41F3E7F8BD00BFF81B0020E8
:1050100038B54388102B044604D1BDE8384001213F
:10502000FFF752BF0B4DAB7C23B101F0AFFA40202C
:1050300002F01EF9286802F0B7F8608810F004004A
:1050400002D1217902F03AF9002002F0EDF80123B3
:105050002B7138BDF81B0020024B0121D869FFF7E6
:1050600033BF00BFF81B002010B5134CA37C1BB14D
:1050700002F00AF901F0A4FAE06907F07FFE70B1CE
:105080002379E069012B0FD12379226A03F1804350
:10509000D268013BBDE8104052F823301847E06960
:1050A000BDE81040FFF76CBC2379022BECD040F632
:1050B00043312D20FBF72CFCF81B002010B50948CC
:1050C000037903F0FF0453B918222146043006F097
:1050D00021F802F0D9F801F073FA204610BD0C2433
:1050E000FBE700BFF81B002010B5094C002323711B
:1050F0002060FFF7E3FF20B140F2F6212D20FBF7FF
:1051000007FC236A13B940F2F921F7E710BD00BF8D
:10511000F81B0020014B024A1A627047F81B00205E
:1051200004540000034B044A1A60044B044A1A60FA
:10513000704700BF24070020D54B0000280700203F
:10514000792800002DE9F041067DB31EDBB2012B6A
:1051500004468CBF4FF000084FF001087EB3B71E25
:1051600018BF0127012B36D800F1580190F85700DD
:1051700008F0A7FE082805462DD0FEF767FA58BBB1
:10518000657784F81C8084F85070FEF781FA054634
:105190000AF079F9174BA5FB0335181845EB010503
:1051A0000022C4E9120584F85E2011462046FFF76C
:1051B000B1FB70B940F293412D20FBF7A9FB3746B4
:1051C000082504F151010020FEF726F90028D7D167
:1051D0000020BDE8F0810825022EF2D0E37E002BEE
:1051E000F6D0D4F81530C4F85130B4F81930A4F81A
:1051F0005530C5E740420F00F0B5464E327987B0D2
:10520000044602F0FF0312B90278FF2A04D140F6E7
:10521000A9112D20FBF77CFB3382B3607371B3714E
:1052200080F879303C4B02933C4B03933C4B049306
:10523000336A02A85B68059301F0AEFF01F0E0FD60
:1052400002F022F801F0BCF9364801F07BFE364846
:1052500001F09CFF04F12800019009F00DFF019876
:1052600009F00FFF01F094FE2179252001F08AFD5D
:1052700094F9120001F060FE04F13401206B07F094
:1052800081FA04F13C010746206B07F0A0FA0546BD
:1052900017B194F82430C3B90DB194F82550237F89
:1052A00013B963885B0709D5D4E912126FF0004384
:1052B0009A4208BFB1F1FF3F09D185B93068033088
:1052C000FEF704FAB07407B0F0BD0125E7E70AF075
:1052D000DAF8D4E91223904271EB0303EDD30122F3
:1052E00005EA02012046FFF715FB68B1FEF7D0F989
:1052F00005460AF0C8F80D4AA5FB0232181842EB21
:105300000102C4E91202D9E7002DD7D040F6DE1120
:105310007FE700BFF81B002069500000F149000042
:105320009D4A0000D6BE898E5555550040420F005B
:10533000F7B50446FFF760FF00212046FFF7C4FDE4
:1053400004F1680008F088FD236F0BB101221A6098
:105350006388DB0721D50023114E256ACDE9003390
:10536000FF23F37405F10A076846FBF717FFA0B99E
:10537000009CA542F8D06A7A607A3B4604F10A01A3
:1053800008F074FD0028EFD0A378F374D4F803007C
:105390007061044BB4F807209A8003B0F0BD00BFE1
:1053A000F81B00200C1C0020024BD8611B6A1B68F4
:1053B000184700BFF81B002043881B0710B50446A0
:1053C00011D5036A0A493C2280F883201B88A0F883
:1053D0008430FF2380F8A1304FF6FF73A0F8A2308D
:1053E0007A3009F07EF8FF2384F8793010BD00BFD1
:1053F000EBEC0000F54D00001150000043ED000003
:105400003DED000031530000C54900005950000037
:1054100000540000F8530000F45300000138022843
:1054200008B503D9C3212F20FBF772FA13290A4BC1
:1054300005D811290CD8102907D0D121F3E7152957
:10544000FBD103EB4003D88801E033F8100008BD1E
:1054500003EB40039889FAE7F8A60200F8B52F4B52
:105460001A88402842EA00021A8005D1042198686F
:10547000BDE8F840FDF72EB9802801D10521F6E7F7
:1054800000F00302032A04D140F6CA113120FBF7D1
:105490003FFA10F0020418BFD960C50705D5CA78D5
:1054A0001961062A0DD00B2A18D02CB1DA68D278EF
:1054B000052A1FD00B2A2AD0820644BF08221A755B
:1054C000F8BD9A6892F88F101829EED100260027AF
:1054D0000121C2E93C6782F89310E6E79A6892F8E6
:1054E0008F10122901BF002182F89310012182F848
:1054F000D210DAE79A6892F88F101629DCD10024CE
:105500000025C2E93E45012182F89410D4E79A684B
:1055100092F88F101129CFD10021F5E71C1C002033
:1055200013B5044601A8FDF701FF20B940F2CA7186
:105530003120FBF7EDF922220021019805F0EAFD68
:105540000198032108F0B2FE0198037823F01003BC
:1055500003702146FEF754FA019906482246FEF7E9
:10556000DDFDFDF7F7FE10B940F2D471E0E702B0BF
:1055700010BD00BF201C002070B5274CA36893F815
:10558000566293F85752002E3FD193F86810002DC1
:105590003DD193F8692083F8681083F86920FF22D1
:1055A00083F86A201D4B1B680BB1A0689847A3685D
:1055B00093F83431012B02D056EA050303D0184882
:1055C0000021FDF757FEA068303009F00CF80546C1
:1055D000A06800F24511FEF769FCA0680621FDF7FE
:1055E00079F8A068303008F0FEFF8542044610D2FA
:1055F00002F08CFD0146601B322838BF322004F0D7
:10560000FBFDB0FA80F0400970BD3146BFE72A4685
:10561000C1E70120F8E700BF1C1C00203007002074
:10562000201C0020002908BF1F21172810B50346A1
:105630000BD80D280DD90E3809280AD8DFE800F05C
:105640000B0909090B090B09110BA0F12303022B0C
:1056500023D9002010BDBDE810400021184609F0F4
:105660005ABD114CA36893F88E20212A09D1201D20
:10567000FDF700FEA368002283F88E2083F8CC207B
:10568000E7E72E2AE5D193F88F30A3F12002062A0E
:10569000F0D92E2BEED02A21E9E7044B1B68002B12
:1056A000D7D0BDE8104018471C1C00202C07002054
:1056B000114B09790246986890F88E30212B11D051
:1056C0002E2B0FD0282B0FD0042B0FD00F2B0FD049
:1056D0001D2B0FD090F88F30232B14BFFE201720E6
:1056E000FFF7A0BF1620FBE72320F9E70E20F7E71E
:1056F0001220F5E71420F3E71C1C002008B50C4B22
:105700009B6893F81E21FE2A04D040F2D971312003
:10571000FBF7FEF883F81E0111B9A3F8CE1008BDFF
:105720000022A3F8C820012283F8CC20F7E700BFAD
:105730001C1C00200D4B1A7D9AB940B99B68B3F828
:1057400058109A8F91420FD81846FCF7B5BF1A88A7
:10575000120708D59B6893F89000073818BF0120FE
:105760007047002070470120704700BF1C1C0020BC
:1057700070B54368D3F8803013F0300F86B004461C
:105780000D4655D1084608F022FE30B9294620467C
:1057900006B0BDE8704008F0DDBF2846666808F036
:1057A00012FE0590284608F00AFE0490284608F0EC
:1057B0000CFE0390284608F004FE3036DDE9033283
:1057C00000900599304608F020FF1A4B1A8892077E
:1057D00010D5DA68D278142A0CD16268D2F88030F9
:1057E00043F01003C2F88030204608F085FF002007
:1057F00006B070BD626892F88E101D29EDD092F847
:105800002B21002AE9D1626892F82A21002AE4D1EA
:105810006168D1F8802042F02002C1F880209A68A7
:10582000114602F5A77231F8300BFEF78DFBDBE76E
:105830000120DDE71C1C002010B5164BDB68197930
:10584000436893F88E20092A09D193F819218A42D6
:1058500005D1002283F88E2083F8CC2010BDD3F828
:10586000802012F0080407D022F00802BDE81040A2
:10587000C3F8802008F04ABFFF2905D1332283F8FE
:105880008E2083F84C42E9E740F2DE413120FBF7FD
:105890003FF800BF1C1C002010B50B794268172B85
:1058A00092F88E2004460CD80D2B0CD9A3F10E01D2
:1058B000092908D8DFE801F00907070709070907E0
:1058C0001009232B26D0002010BD22460121BDE85F
:1058D0001040184609F01FBC212A01D02E2AF2D10F
:1058E000204608F000FF636893F88F20222AEAD050
:1058F00093F8E32022F0010283F8E320626892F833
:10590000E33023F0080382F8E3301A212046FDF744
:10591000B1FCD8E7282AD6D1024B1B68002BD2D085
:105920009847D0E7340700207FB5844C054600280F
:1059300040F0B88023881B0735D5A36893F81E2153
:10594000FE2A04D14FF4AA613120FAF7E1FFFE22CA
:1059500083F81E2193F88F201A2A07D183F8D100EB
:10596000201D08F0D3FEA36883F88F50A36893F836
:105970008E20332A42D03F2A49D0202A0AD193F8D8
:105980008F20A2F12001062901D92E2A34D12E22FE
:1059900083F88E20A36893F89020072A02BF022282
:1059A000627583F81E212388DE0734D423885807C4
:1059B00000F1A680990713D5E368DE780D2E00F07C
:1059C000A780112E00F0A680072E00F0A58030469B
:1059D000FEF75EFC0346002800F0A0805848984778
:1059E0002388DA065ED5A36893F88F200A2A59D156
:1059F0000B2283F88F2055E02122C9E7012283F88A
:105A00004D22002283F88E2083F8CC20C2E74C4838
:105A100008F069FEBEE7A368216993F88F30113B57
:105A20000B2B0CD8CB78023BDBB2092B00F2828027
:105A3000012202FA03F340F2333213427AD00846CD
:105A40000191FDF7CBFF019918B93D4808F082FE9E
:105A50004BE0CE78012E01D9162E11D1A368019109
:105A600093F88E0008F067FE019948B1A36893F897
:105A70008E20202A04D0212A10D12E2283F88E20B5
:105A8000112E37D028D8072E36D00D2E36D03046DE
:105A90000191FEF7F3FB0199034621E0162E0CBF9E
:105AA00020250225237D1B0713D5A36893F88F308B
:105AB000113B0B2B40D9002603A903200396FBF7CB
:105AC000D3FF039B2BB11E720C22A1680398FEF733
:105AD00087F9284604B070BD142ED8D1194B1B6825
